:100000000C943D000C945A000C945A000C945A0025
:100010000C945A000C945A000C945A000C945A00F8
:100020000C945A000C945A000C945A000C945A00E8
:100030000C945A000C945A000C945A000C945A00D8
:100040000C945A000C945A000C945A000C945A00C8
:100050000C945A000C945A000C945A000C945A00B8
:100060000C945A000C945A005006F7052406A0057B
:1000700093058A05CC05312E303011241FBECFEFF9
:10008000D8E0DEBFCDBF11E0A0E0B1E0E6E0FFE0E8
:1000900002C005900D92A231B107D9F723E0A2E189
:1000A000B1E001C01D92AB31B207E1F70E94160525
:1000B0000C9481070C940000FF920F931F93CF9331
:1000C000DF93082FF62E172F8BE30E94B603C1EFA4
:1000D000C00F8C2F0E94B60381E00E94B60385E01A
:1000E0000E94B60385E00E94B60380E00E94B6033A
:1000F00080E00E94B6030051CC2369F0CF2DD12FB0
:1001000010E00F5F1F4F0C0F1D1F89910E94B60357
:10011000C017D107D1F7DF91CF911F910F91FF90B9
:100120000895CF93DF9380919802843049F08CE654
:100130008093190384E080931A03DF91CF9108958F
:10014000809112010E94B60380919802882379F071
:10015000C0E0D0E0FE01EA58FF4F84910E94B60350
:1001600021968091980290E0C817D9079CF380E906
:1001700080931903DF91CF910895CF92DF92EF9290
:10018000FF920F931F93CF93DF93CDB7DEB7A09766
:100190000FB6F894DEBF0FBECDBF809198028132BA
:1001A000A8F08CE68093190380E280931A03A0964E
:1001B0000FB6F894DEBF0FBECDBFDF91CF911F9178
:1001C0000F91FF90EF90DF90CF90089580911201F2
:1001D0000E94B60340919802442311F1FE0131962A
:1001E0006F017F0100E010E00E948C04F701819311
:1001F0007F010F5F1F4F4091980250E004171507D1
:100200009CF36DE470E0C6010E946407609198025F
:100210008DE690E00E946E0780E980931903C7CFB6
:10022000CE0101966C0140E050E0EBCFEF92FF92DF
:100230000F931F93CF93DF93CDB7DEB7A0970FB681
:10024000F894DEBF0FBECDBF8DE690E00E9456074A
:10025000182F80919802181791F08CE6809319035B
:1002600010931A03A0960FB6F894DEBF0FBECDBF51
:10027000DF91CF911F910F91FF90EF9008958091A2
:1002800012010E94B603412F50E06DE470E0CE01F0
:1002900001960E94460780919802882391F0CE0132
:1002A00001967C0100E010E0F70181917F010E943E
:1002B000B6030F5F1F4F8091980290E0081719074F
:1002C0009CF380E980931903CDCFCF92DF92EF9218
:1002D000FF920F931F93CF93DF93CDB7DEB7A09715
:1002E0000FB6F894DEBF0FBECDBF80919802813269
:1002F000A8F08CE68093190380E280931A03A096FD
:100300000FB6F894DEBF0FBECDBFDF91CF911F9126
:100310000F91FF90EF90DF90CF90089580911201A0
:100320000E94B60340919802442311F1FE013196D8
:100330006F017F0100E010E00E948C04F7018193BF
:100340007F010F5F1F4F4091980250E0041715077F
:100350009CF36CE270E0C6010E9464076091980211
:100360008CE490E00E946E0780E980931903C7CF68
:10037000CE0101966C0140E050E0EBCFEF92FF928E
:100380000F931F93CF93DF93CDB7DEB7A0970FB630
:10039000F894DEBF0FBECDBF8CE490E00E945607FC
:1003A000182F80919802181791F08CE6809319030A
:1003B00010931A03A0960FB6F894DEBF0FBECDBF00
:1003C000DF91CF911F910F91FF90EF900895809151
:1003D00012010E94B603412F50E06CE270E0CE01A2
:1003E00001960E94460780919802882391F0CE01E1
:1003F00001967C0100E010E0F70181917F010E94ED
:10040000B6030F5F1F4F8091980290E008171907FD
:100410009CF380E980931903CDCFCF92DF92EF92C6
:10042000FF920F931F93CF93DF93CDB7DEB7A097C3
:100430000FB6F894DEBF0FBECDBF80919802813217
:10044000A8F08CE68093190380E280931A03A096AB
:100450000FB6F894DEBF0FBECDBFDF91CF911F91D5
:100460000F91FF90EF90DF90CF900895809112014F
:100470000E94B60340919802442311F1FE01319687
:100480006F017F0100E010E00E948C04F70181936E
:100490007F010F5F1F4F4091980250E0041715072E
:1004A0009CF36BE070E0C6010E94640760919802C3
:1004B0008BE290E00E946E0780E980931903C7CF1A
:1004C000CE0101966C0140E050E0EBCFEF92FF923D
:1004D0000F931F93CF93DF93CDB7DEB7A0970FB6DF
:1004E000F894DEBF0FBECDBF8BE290E00E945607AE
:1004F000182F80919802181791F08CE680931903B9
:1005000010931A03A0960FB6F894DEBF0FBECDBFAE
:10051000DF91CF911F910F91FF90EF9008958091FF
:1005200012010E94B603412F50E06BE070E0CE0153
:1005300001960E94460780919802882391F0CE018F
:1005400001967C0100E010E0F70181917F010E949B
:10055000B6030F5F1F4F8091980290E008171907AC
:100560009CF380E980931903CDCFEF92FF920F9314
:100570001F93CF93DF93CDB7DEB728970FB6F894CC
:10058000DEBF0FBECDBF8AE090E00E945607182F55
:1005900080919802181791F08CE6809319031093BC
:1005A0001A0328960FB6F894DEBF0FBECDBFDF91B9
:1005B000CF911F910F91FF90EF90089580911201BC
:1005C0000E94B603412F50E062E070E0CE01019638
:1005D0000E94460780919802882391F0CE010196EF
:1005E0007C0100E010E0F70181917F010E94B603D9
:1005F0000F5F1F4F8091980290E0081719079CF336
:1006000080E980931903CDCFCF92DF92EF92FF92D2
:100610000F931F93CF93DF93CDB7DEB7A0970FB69D
:10062000F894DEBF0FBECDBF809198028930A8F04C
:100630008CE68093190388E080931A03A0960FB686
:10064000F894DEBF0FBECDBFDF91CF911F910F9108
:10065000FF90EF90DF90CF900895809112010E945B
:10066000B60340919802442311F1FE0131966F01C7
:100670007F0100E010E00E948C04F70181937F016C
:100680000F5F1F4F4091980250E0041715079CF32D
:1006900062E070E0C6010E946407609198028AE0FF
:1006A00090E00E946E0780E980931903C7CFCE01C6
:1006B00001966C0140E050E0EBCFCF93DF93809147
:1006C0009802823049F08CE68093190382E080938F
:1006D0001A03DF91CF910895809112010E94B60311
:1006E0000E948C04C82F0E948C04D0E0DC2FCC2701
:1006F000C80FD11D80E090E00E945E078C179D0717
:1007000030F481E680931903DF91CF910895BC0105
:100710006C1B7D0B80E090E00E947C0780E9809359
:100720001903D7CFCF93DF9300D0CDB7DEB78A833D
:100730008A8181708295807F898382EB90E0FC01C1
:1007400080818E32D0F385E290E02981FC01208304
:1007500082EB90E0FC01108282EB90E0FC011082C1
:1007600000000F900F90DF91CF910895CF93DF930A
:1007700000D000D0CDB7DEB78C838C818B8381EB2A
:1007800090E022E0FC01208382EB90E028E2FC0173
:10079000208385E290E025E230E0F90120812061AC
:1007A000FC01208384E290E024E230E0F901208122
:1007B0002061FC01208380E00E9492031A8219824A
:1007C0000DC08C810E9492039A818C8189278A8333
:1007D0008C8186958C8389818F5F8983898188301C
:1007E00080F38A810E94920381E00E94920382EB4F
:1007F00090E0FC0180818E32D0F384E290E024E22C
:1008000030E0F90120812F7EFC01208385E290E019
:1008100025E230E0F90120812F7EFC01208382EB6C
:1008200090E0FC0180818D35D0F383E290E0FC0103
:100830008081882F90E080719927892B91F483E241
:1008400090E0FC018081882F90E080719927892BAE
:10085000B1F382EB90E026E1FC0120838B818C8355
:1008600098CF81EB90E0FC01108200000F900F9078
:100870000F900F90DF91CF910895CF93DF931F9248
:10088000CDB7DEB782EB90E0FC0180818E32D0F3F1
:1008900082EB90E0FC01108282EB90E0FC01108280
:1008A00082EB90E0FC0180818C30D0F383E290E019
:1008B000FC0180818071898382EB90E0FC01808162
:1008C0008731D0F383E290E0FC018081882F90E0B3
:1008D00080719927982F8981890F898382EB90E015
:1008E000FC0180818232D0F383E290E0FC018081C0
:1008F000882F90E080719927982F8981890F8983AB
:100900008981882F90E0880F991F880F991F807820
:100910000F90DF91CF910895CF93DF9300D000D057
:10092000CDB7DEB781EB90E022E0FC01208384E2CA
:1009300090E024E230E0F90120812F7EFC01208349
:1009400085E290E025E230E0F90120812061FC01A0
:1009500020831A8283E290E0FC018081882F90E05E
:1009600080719927892BB1F783E290E0FC018081A7
:10097000882F90E080719927892BB1F782EB90E066
:10098000FC01108282EB90E0FC0110821B82198234
:1009900010C00E943D048C838A81982F96958C818B
:1009A000890F8A839B818C8189278B8389818F5FC3
:1009B00089838981883068F30E943D04982F8B8158
:1009C00089278B8382EB90E0FC0180818D35D0F309
:1009D0008B818823C9F085E290E025E230E0F901BF
:1009E00020812F7EFC01208384E290E024E230E02D
:1009F000F90120812061FC01208382EB90E0FC0161
:100A00008081823AD0F393CF82EB90E0FC01808129
:100A10008B38D0F381EB90E0FC0110828A810F903B
:100A20000F900F900F90DF91CF910895CF93DF93A8
:100A3000CDB7DEB7A0970FB6F894DEBF0FBECDBF1F
:100A400080E880BF8FEF85B984B987B91AB888B9B3
:100A50008BB980E68093B60087E88093640060E0FD
:100A600071E08BE00E945C0010921601109215015B
:100A700010921A032DE6B22E30E9A32E4CE6D42EA6
:100A800050E2952E6EE6C62E78E0872EE1E67E2EA9
:100A900014C080911201823009F441C1833009F4FD
:100AA00034C1813009F405C1B09219038DE60E946A
:100AB000B60380911A030E94B6030E948C048093AF
:100AC00014010E948C04809312010E948C04809374
:100AD00097010E948C04809313010E948C04182FAC
:100AE0008093980210921A0380911401813831F09A
:100AF000823879F2C09219038EE6D9CFE0911201C3
:100B00008E2F90E08730910578F6FC01EC5CFF4F6A
:100B10000C944007113208F434C1D092190390921A
:100B20001A038CE6C4CF8CE490E00E945607181795
:100B300009F469C1D092190380931A038CE6B7CFE8
:100B4000113258F783E00E94B60340919802442383
:100B500009F493C1CE0101967C0100E010E00E94EF
:100B60008C04F70181937F010F5F1F4F4091980222
:100B700050E0041715079CF36CE270E0CE0101967B
:100B80000E946407609198028CE490E00E946E07D6
:100B9000A092190380E98BCF8BE290E00E94560768
:100BA0001813C8CF86E00E94B603412F50E06BE0D7
:100BB00070E0CE0101960E9446078091980288233A
:100BC00091F0CE0101967C0100E010E0F7018191E7
:100BD0007F010E94B6030F5F1F4F8091980290E043
:100BE000081719079CF3A092190380E960CF11320E
:100BF00008F093CF81E00E94B6034091980244230D
:100C000009F435C1CE0101967C0100E010E00E949C
:100C10008C04F70181937F010F5F1F4F4091980271
:100C200050E0041715079CF36DE470E0CE010196C7
:100C30000E946407609198028DE690E00E946E0722
:100C4000A092190380E933CF8DE690E00E94560709
:100C5000181370CF82E00E94B603412F50E06DE47C
:100C600070E0CE0101960E94460780919802882389
:100C700009F4B9CFCE0101967C0100E010E0F70144
:100C800081917F010E94B6030F5F1F4F80919802F0
:100C900090E0081719079CF3A092190380E907CF89
:100CA0006CE071E084E090E00E9491008091190373
:100CB000FECE8AE090E00E94560718133BCF81E0F9
:100CC0000E94B603412F50E062E070E0CE01019631
:100CD0000E94460780919802882309F484CFCE01B0
:100CE00001967C0100E010E0F70181917F010E94F4
:100CF000B6030F5F1F4F8091980290E00817190705
:100D00009CF3A092190380E9D2CE123009F463C09B
:100D1000D092190382E080931A038CE6C8CE193072
:100D200030F0D092190380921A038CE6C0CE82E094
:100D30000E94B60340919802442309F495C0CE0165
:100D400001967C0100E010E00E948C04F701819381
:100D50007F010F5F1F4F4091980250E00417150765
:100D60009CF362E070E0CE0101960E9464076091FE
:100D700098028AE090E00E946E07A092190380E931
:100D800096CE85E00E94B60340919802442309F470
:100D900071C0CE0101967C0100E010E00E948C043D
:100DA000F70181937F010F5F1F4F4091980250E040
:100DB000041715079CF36BE070E0CE0101960E94CA
:100DC0006407609198028BE290E00E946E07A09207
:100DD000190380E96CCE83E00E94B6030E948C0464
:100DE000082F0E948C0410E0102F0027080F111DFF
:100DF00080E090E00E945E078017910750F57092A6
:100E0000190381E654CE84E00E94B603412F50E0DE
:100E10006CE270E0CE0101960E9446078091980234
:100E2000882309F4E0CECE0101967C0100E010E0B9
:100E3000F70181917F010E94B6030F5F1F4F8091E0
:100E4000980290E0081719079CF3A092190380E913
:100E50002ECEBC01601B710B80E090E00E947C07ED
:100E6000A092190380E923CE40E050E07ACF40E021
:100E700050E0DACE40E050E09ECF40E050E07CCE43
:100E8000EE0FFF1F0590F491E02D0994DC01CB01DA
:100E9000FC01F999FECF06C0F2BDE1BDF89A31968A
:100EA00000B40D9241505040B8F70895F999FECF23
:100EB00092BD81BDF89A992780B50895A8E1B0E068
:100EC00042E050E00C944807DC01CB0103C02D91B7
:100ED0000E946F0741505040D0F70895262FF9998E
:100EE000FECF1FBA92BD81BD20BD0FB6F894FA9A0D
:100EF000F99A0FBE019608950E946E07272F0C9451
:060F00006F07F894FFCF1B
:100F060048656C6C6F20736361726400312E3030FB
:020F16000000D9
:00000001FF
